{"abi":[{"type":"constructor","inputs":[{"name":"initialOwner","type":"address","internalType":"address"},{"name":"_feeRecipient","type":"address","internalType":"address"}],"stateMutability":"nonpayable"},{"type":"function","name":"MAX_FEE_BPS","inputs":[],"outputs":[{"name":"","type":"uint256","internalType":"uint256"}],"stateMutability":"view"},{"type":"function","name":"buyItem","inputs":[{"name":"nftContract","type":"address","internalType":"address"},{"name":"tokenId","type":"uint256","internalType":"uint256"}],"outputs":[],"stateMutability":"payable"},{"type":"function","name":"cancelListing","inputs":[{"name":"nftContract","type":"address","internalType":"address"},{"name":"tokenId","type":"uint256","internalType":"uint256"}],"outputs":[],"stateMutability":"nonpayable"},{"type":"function","name":"feeBps","inputs":[],"outputs":[{"name":"","type":"uint256","internalType":"uint256"}],"stateMutability":"view"},{"type":"function","name":"feeRecipient","inputs":[],"outputs":[{"name":"","type":"address","internalType":"address"}],"stateMutability":"view"},{"type":"function","name":"getListing","inputs":[{"name":"nftContract","type":"address","internalType":"address"},{"name":"tokenId","type":"uint256","internalType":"uint256"}],"outputs":[{"name":"","type":"tuple","internalType":"struct NFTMarketplace.Listing","components":[{"name":"seller","type":"address","internalType":"address"},{"name":"nftContract","type":"address","internalType":"address"},{"name":"tokenId","type":"uint256","internalType":"uint256"},{"name":"price","type":"uint256","internalType":"uint256"},{"name":"active","type":"bool","internalType":"bool"}]}],"stateMutability":"view"},{"type":"function","name":"listItem","inputs":[{"name":"nftContract","type":"address","internalType":"address"},{"name":"tokenId","type":"uint256","internalType":"uint256"},{"name":"price","type":"uint256","internalType":"uint256"}],"outputs":[],"stateMutability":"nonpayable"},{"type":"function","name":"listings","inputs":[{"name":"","type":"address","internalType":"address"},{"name":"","type":"uint256","internalType":"uint256"}],"outputs":[{"name":"seller","type":"address","internalType":"address"},{"name":"nftContract","type":"address","internalType":"address"},{"name":"tokenId","type":"uint256","internalType":"uint256"},{"name":"price","type":"uint256","internalType":"uint256"},{"name":"active","type":"bool","internalType":"bool"}],"stateMutability":"view"},{"type":"function","name":"owner","inputs":[],"outputs":[{"name":"","type":"address","internalType":"address"}],"stateMutability":"view"},{"type":"function","name":"renounceOwnership","inputs":[],"outputs":[],"stateMutability":"nonpayable"},{"type":"function","name":"setFeeBps","inputs":[{"name":"newFeeBps","type":"uint256","internalType":"uint256"}],"outputs":[],"stateMutability":"nonpayable"},{"type":"function","name":"setFeeRecipient","inputs":[{"name":"newRecipient","type":"address","internalType":"address"}],"outputs":[],"stateMutability":"nonpayable"},{"type":"function","name":"transferOwnership","inputs":[{"name":"newOwner","type":"address","internalType":"address"}],"outputs":[],"stateMutability":"nonpayable"},{"type":"function","name":"updateListingPrice","inputs":[{"name":"nftContract","type":"address","internalType":"address"},{"name":"tokenId","type":"uint256","internalType":"uint256"},{"name":"newPrice","type":"uint256","internalType":"uint256"}],"outputs":[],"stateMutability":"nonpayable"},{"type":"event","name":"Listed","inputs":[{"name":"nftContract","type":"address","indexed":true,"internalType":"address"},{"name":"tokenId","type":"uint256","indexed":true,"internalType":"uint256"},{"name":"seller","type":"address","indexed":true,"internalType":"address"},{"name":"price","type":"uint256","indexed":false,"internalType":"uint256"}],"anonymous":false},{"type":"event","name":"ListingCancelled","inputs":[{"name":"nftContract","type":"address","indexed":true,"internalType":"address"},{"name":"tokenId","type":"uint256","indexed":true,"internalType":"uint256"},{"name":"seller","type":"address","indexed":true,"internalType":"address"}],"anonymous":false},{"type":"event","name":"ListingUpdated","inputs":[{"name":"nftContract","type":"address","indexed":true,"internalType":"address"},{"name":"tokenId","type":"uint256","indexed":true,"internalType":"uint256"},{"name":"newPrice","type":"uint256","indexed":false,"internalType":"uint256"}],"anonymous":false},{"type":"event","name":"OwnershipTransferred","inputs":[{"name":"previousOwner","type":"address","indexed":true,"internalType":"address"},{"name":"newOwner","type":"address","indexed":true,"internalType":"address"}],"anonymous":false},{"type":"event","name":"Sold","inputs":[{"name":"nftContract","type":"address","indexed":true,"internalType":"address"},{"name":"tokenId","type":"uint256","indexed":true,"internalType":"uint256"},{"name":"buyer","type":"address","indexed":true,"internalType":"address"},{"name":"seller","type":"address","indexed":false,"internalType":"address"},{"name":"price","type":"uint256","indexed":false,"internalType":"uint256"}],"anonymous":false},{"type":"error","name":"OwnableInvalidOwner","inputs":[{"name":"owner","type":"address","internalType":"address"}]},{"type":"error","name":"OwnableUnauthorizedAccount","inputs":[{"name":"account","type":"address","internalType":"address"}]},{"type":"error","name":"ReentrancyGuardReentrantCall","inputs":[]}],"bytecode":{"object":"0x608060405260fa600255348015610014575f5ffd5b50604051612487380380612487833981810160405281019061003691906102e1565b81600161005561004a61019060201b60201c565b6101b960201b60201c565b5f01819055505f73ffffffffffffffffffffffffffffffffffffffff168173ffffffffffffffffffffffffffffffffffffffff16036100cb575f6040517f1e4fbdf70000000000000000000000000000000000000000000000000000000081526004016100c2919061032e565b60405180910390fd5b6100da816101c260201b60201c565b505f73ffffffffffffffffffffffffffffffffffffffff168173ffffffffffffffffffffffffffffffffffffffff1603610149576040517f08c379a0000000000000000000000000000000000000000000000000000000008152600401610140906103a1565b60405180910390fd5b8060035f6101000a81548173ffffffffffffffffffffffffffffffffffffffff021916908373ffffffffffffffffffffffffffffffffffffffff16021790555050506103bf565b5f7f9b779b17422d0df92223018b32b4d1fa46e071723d6817e2486d003becc55f005f1b905090565b5f819050919050565b5f5f5f9054906101000a900473ffffffffffffffffffffffffffffffffffffffff169050815f5f6101000a81548173ffffffffffffffffffffffffffffffffffffffff021916908373ffffffffffffffffffffffffffffffffffffffff1602179055508173ffffffffffffffffffffffffffffffffffffffff168173ffffffffffffffffffffffffffffffffffffffff167f8be0079c531659141344cd1fd0a4f28419497f9722a3daafe3b4186f6b6457e060405160405180910390a35050565b5f5ffd5b5f73ffffffffffffffffffffffffffffffffffffffff82169050919050565b5f6102b082610287565b9050919050565b6102c0816102a6565b81146102ca575f5ffd5b50565b5f815190506102db816102b7565b92915050565b5f5f604083850312156102f7576102f6610283565b5b5f610304858286016102cd565b9250506020610315858286016102cd565b9150509250929050565b610328816102a6565b82525050565b5f6020820190506103415f83018461031f565b92915050565b5f82825260208201905092915050565b7f4d61726b6574706c6163653a207a65726f2066656520726563697069656e74005f82015250565b5f61038b601f83610347565b915061039682610357565b602082019050919050565b5f6020820190508181035f8301526103b88161037f565b9050919050565b6120bb806103cc5f395ff3fe6080604052600436106100db575f3560e01c80638da5cb5b1161007e578063d55be8c611610058578063d55be8c614610283578063e74b981b146102ad578063f2fde38b146102d5578063f7232f67146102fd576100db565b80638da5cb5b146102155780639f37092a1461023f578063b2ddee061461025b576100db565b8063715018a6116100ba578063715018a61461017357806372c27b621461018957806388700d1c146101b157806389bfd38f146101ed576100db565b806207df30146100df57806324a9d8531461011f5780634690484014610149575b5f5ffd5b3480156100ea575f5ffd5b5061010560048036038101906101009190611778565b610325565b6040516101169594939291906117ee565b60405180910390f35b34801561012a575f5ffd5b506101336103ac565b604051610140919061183f565b60405180910390f35b348015610154575f5ffd5b5061015d6103b2565b60405161016a9190611858565b60405180910390f35b34801561017e575f5ffd5b506101876103d7565b005b348015610194575f5ffd5b506101af60048036038101906101aa9190611871565b6103ea565b005b3480156101bc575f5ffd5b506101d760048036038101906101d29190611778565b610441565b6040516101e4919061192f565b60405180910390f35b3480156101f8575f5ffd5b50610213600480360381019061020e9190611948565b61057f565b005b348015610220575f5ffd5b506102296109de565b6040516102369190611858565b60405180910390f35b61025960048036038101906102549190611778565b610a05565b005b348015610266575f5ffd5b50610281600480360381019061027c9190611778565b610f19565b005b34801561028e575f5ffd5b50610297611163565b6040516102a4919061183f565b60405180910390f35b3480156102b8575f5ffd5b506102d360048036038101906102ce9190611998565b611169565b005b3480156102e0575f5ffd5b506102fb60048036038101906102f69190611998565b611222565b005b348015610308575f5ffd5b50610323600480360381019061031e9190611948565b6112a6565b005b6001602052815f5260405f20602052805f5260405f205f9150915050805f015f9054906101000a900473ffffffffffffffffffffffffffffffffffffffff1690806001015f9054906101000a900473ffffffffffffffffffffffffffffffffffffffff1690806002015490806003015490806004015f9054906101000a900460ff16905085565b60025481565b60035f9054906101000a900473ffffffffffffffffffffffffffffffffffffffff1681565b6103df611475565b6103e85f6114fc565b565b6103f2611475565b6103e8811115610437576040517f08c379a000000000000000000000000000000000000000000000000000000000815260040161042e90611a1d565b60405180910390fd5b8060028190555050565b61044961168f565b60015f8473ffffffffffffffffffffffffffffffffffffffff1673ffffffffffffffffffffffffffffffffffffffff1681526020019081526020015f205f8381526020019081526020015f206040518060a00160405290815f82015f9054906101000a900473ffffffffffffffffffffffffffffffffffffffff1673ffffffffffffffffffffffffffffffffffffffff1673ffffffffffffffffffffffffffffffffffffffff168152602001600182015f9054906101000a900473ffffffffffffffffffffffffffffffffffffffff1673ffffffffffffffffffffffffffffffffffffffff1673ffffffffffffffffffffffffffffffffffffffff1681526020016002820154815260200160038201548152602001600482015f9054906101000a900460ff161515151581525050905092915050565b5f81116105c1576040517f08c379a00000000000000000000000000000000000000000000000000000000081526004016105b890611a85565b60405180910390fd5b5f8390503373ffffffffffffffffffffffffffffffffffffffff168173ffffffffffffffffffffffffffffffffffffffff16636352211e856040518263ffffffff1660e01b8152600401610615919061183f565b602060405180830381865afa158015610630573d5f5f3e3d5ffd5b505050506040513d601f19601f820116820180604052508101906106549190611ab7565b73ffffffffffffffffffffffffffffffffffffffff16146106aa576040517f08c379a00000000000000000000000000000000000000000000000000000000081526004016106a190611b2c565b60405180910390fd5b8073ffffffffffffffffffffffffffffffffffffffff1663e985e9c533306040518363ffffffff1660e01b81526004016106e5929190611b4a565b602060405180830381865afa158015610700573d5f5f3e3d5ffd5b505050506040513d601f19601f820116820180604052508101906107249190611b9b565b806107d157503073ffffffffffffffffffffffffffffffffffffffff168173ffffffffffffffffffffffffffffffffffffffff1663081812fc856040518263ffffffff1660e01b815260040161077a919061183f565b602060405180830381865afa158015610795573d5f5f3e3d5ffd5b505050506040513d601f19601f820116820180604052508101906107b99190611ab7565b73ffffffffffffffffffffffffffffffffffffffff16145b610810576040517f08c379a000000000000000000000000000000000000000000000000000000000815260040161080790611c36565b60405180910390fd5b6040518060a001604052803373ffffffffffffffffffffffffffffffffffffffff1681526020018573ffffffffffffffffffffffffffffffffffffffff1681526020018481526020018381526020016001151581525060015f8673ffffffffffffffffffffffffffffffffffffffff1673ffffffffffffffffffffffffffffffffffffffff1681526020019081526020015f205f8581526020019081526020015f205f820151815f015f6101000a81548173ffffffffffffffffffffffffffffffffffffffff021916908373ffffffffffffffffffffffffffffffffffffffff1602179055506020820151816001015f6101000a81548173ffffffffffffffffffffffffffffffffffffffff021916908373ffffffffffffffffffffffffffffffffffffffff16021790555060408201518160020155606082015181600301556080820151816004015f6101000a81548160ff0219169083151502179055509050503373ffffffffffffffffffffffffffffffffffffffff16838573ffffffffffffffffffffffffffffffffffffffff167f8b06cda60618abf2b2d07227f9dd63ec6349ca3269ce0eb18d49122a48362ad8856040516109d0919061183f565b60405180910390a450505050565b5f5f5f9054906101000a900473ffffffffffffffffffffffffffffffffffffffff16905090565b610a0d6115bd565b5f60015f8473ffffffffffffffffffffffffffffffffffffffff1673ffffffffffffffffffffffffffffffffffffffff1681526020019081526020015f205f8381526020019081526020015f206040518060a00160405290815f82015f9054906101000a900473ffffffffffffffffffffffffffffffffffffffff1673ffffffffffffffffffffffffffffffffffffffff1673ffffffffffffffffffffffffffffffffffffffff168152602001600182015f9054906101000a900473ffffffffffffffffffffffffffffffffffffffff1673ffffffffffffffffffffffffffffffffffffffff1673ffffffffffffffffffffffffffffffffffffffff1681526020016002820154815260200160038201548152602001600482015f9054906101000a900460ff16151515158152505090508060800151610b82576040517f08c379a0000000000000000000000000000000000000000000000000000000008152600401610b7990611c9e565b60405180910390fd5b80606001513414610bc8576040517f08c379a0000000000000000000000000000000000000000000000000000000008152600401610bbf90611d06565b60405180910390fd5b60015f8473ffffffffffffffffffffffffffffffffffffffff1673ffffffffffffffffffffffffffffffffffffffff1681526020019081526020015f205f8381526020019081526020015f205f5f82015f6101000a81549073ffffffffffffffffffffffffffffffffffffffff0219169055600182015f6101000a81549073ffffffffffffffffffffffffffffffffffffffff0219169055600282015f9055600382015f9055600482015f6101000a81549060ff021916905550505f6127106002548360600151610c999190611d51565b610ca39190611dbf565b90505f818360600151610cb69190611def565b90508473ffffffffffffffffffffffffffffffffffffffff166342842e0e845f015133876040518463ffffffff1660e01b8152600401610cf893929190611e22565b5f604051808303815f87803b158015610d0f575f5ffd5b505af1158015610d21573d5f5f3e3d5ffd5b505050505f60035f9054906101000a900473ffffffffffffffffffffffffffffffffffffffff1673ffffffffffffffffffffffffffffffffffffffff1683604051610d6b90611e84565b5f6040518083038185875af1925050503d805f8114610da5576040519150601f19603f3d011682016040523d82523d5f602084013e610daa565b606091505b5050905080610dee576040517f08c379a0000000000000000000000000000000000000000000000000000000008152600401610de590611ee2565b60405180910390fd5b5f845f015173ffffffffffffffffffffffffffffffffffffffff1683604051610e1690611e84565b5f6040518083038185875af1925050503d805f8114610e50576040519150601f19603f3d011682016040523d82523d5f602084013e610e55565b606091505b5050905080610e99576040517f08c379a0000000000000000000000000000000000000000000000000000000008152600401610e9090611f70565b60405180910390fd5b3373ffffffffffffffffffffffffffffffffffffffff16868873ffffffffffffffffffffffffffffffffffffffff167fda87ba82c20701b6408a3d08484f0e5ece08f4d8400b15716a197e6e0c23c261885f01518960600151604051610f00929190611f8e565b60405180910390a45050505050610f156115df565b5050565b5f60015f8473ffffffffffffffffffffffffffffffffffffffff1673ffffffffffffffffffffffffffffffffffffffff1681526020019081526020015f205f8381526020019081526020015f209050806004015f9054906101000a900460ff16610fb8576040517f08c379a0000000000000000000000000000000000000000000000000000000008152600401610faf90611c9e565b60405180910390fd5b3373ffffffffffffffffffffffffffffffffffffffff16815f015f9054906101000a900473ffffffffffffffffffffffffffffffffffffffff1673ffffffffffffffffffffffffffffffffffffffff1614611048576040517f08c379a000000000000000000000000000000000000000000000000000000000815260040161103f90611fff565b60405180910390fd5b60015f8473ffffffffffffffffffffffffffffffffffffffff1673ffffffffffffffffffffffffffffffffffffffff1681526020019081526020015f205f8381526020019081526020015f205f5f82015f6101000a81549073ffffffffffffffffffffffffffffffffffffffff0219169055600182015f6101000a81549073ffffffffffffffffffffffffffffffffffffffff0219169055600282015f9055600382015f9055600482015f6101000a81549060ff021916905550503373ffffffffffffffffffffffffffffffffffffffff16828473ffffffffffffffffffffffffffffffffffffffff167f8526cb6d400b8a551983c99e6d6fb1775b7a0deeb5d1e39d3ee65bc59e5eac2760405160405180910390a4505050565b6103e881565b611171611475565b5f73ffffffffffffffffffffffffffffffffffffffff168173ffffffffffffffffffffffffffffffffffffffff16036111df576040517f08c379a00000000000000000000000000000000000000000000000000000000081526004016111d690612067565b60405180910390fd5b8060035f6101000a81548173ffffffffffffffffffffffffffffffffffffffff021916908373ffffffffffffffffffffffffffffffffffffffff16021790555050565b61122a611475565b5f73ffffffffffffffffffffffffffffffffffffffff168173ffffffffffffffffffffffffffffffffffffffff160361129a575f6040517f1e4fbdf70000000000000000000000000000000000000000000000000000000081526004016112919190611858565b60405180910390fd5b6112a3816114fc565b50565b5f60015f8573ffffffffffffffffffffffffffffffffffffffff1673ffffffffffffffffffffffffffffffffffffffff1681526020019081526020015f205f8481526020019081526020015f209050806004015f9054906101000a900460ff16611345576040517f08c379a000000000000000000000000000000000000000000000000000000000815260040161133c90611c9e565b60405180910390fd5b3373ffffffffffffffffffffffffffffffffffffffff16815f015f9054906101000a900473ffffffffffffffffffffffffffffffffffffffff1673ffffffffffffffffffffffffffffffffffffffff16146113d5576040517f08c379a00000000000000000000000000000000000000000000000000000000081526004016113cc90611fff565b60405180910390fd5b5f8211611417576040517f08c379a000000000000000000000000000000000000000000000000000000000815260040161140e90611a85565b60405180910390fd5b818160030181905550828473ffffffffffffffffffffffffffffffffffffffff167f3e11d82182e9689c0f7ffc3ce2a4a057e1fc080032c0dcce9c269258c874a86c84604051611467919061183f565b60405180910390a350505050565b61147d6115f9565b73ffffffffffffffffffffffffffffffffffffffff1661149b6109de565b73ffffffffffffffffffffffffffffffffffffffff16146114fa576114be6115f9565b6040517f118cdaa70000000000000000000000000000000000000000000000000000000081526004016114f19190611858565b60405180910390fd5b565b5f5f5f9054906101000a900473ffffffffffffffffffffffffffffffffffffffff169050815f5f6101000a81548173ffffffffffffffffffffffffffffffffffffffff021916908373ffffffffffffffffffffffffffffffffffffffff1602179055508173ffffffffffffffffffffffffffffffffffffffff168173ffffffffffffffffffffffffffffffffffffffff167f8be0079c531659141344cd1fd0a4f28419497f9722a3daafe3b4186f6b6457e060405160405180910390a35050565b6115c5611600565b60026115d76115d2611641565b61166a565b5f0181905550565b60016115f16115ec611641565b61166a565b5f0181905550565b5f33905090565b611608611673565b1561163f576040517f3ee5aeb500000000000000000000000000000000000000000000000000000000815260040160405180910390fd5b565b5f7f9b779b17422d0df92223018b32b4d1fa46e071723d6817e2486d003becc55f005f1b905090565b5f819050919050565b5f6002611686611681611641565b61166a565b5f015414905090565b6040518060a001604052805f73ffffffffffffffffffffffffffffffffffffffff1681526020015f73ffffffffffffffffffffffffffffffffffffffff1681526020015f81526020015f81526020015f151581525090565b5f5ffd5b5f73ffffffffffffffffffffffffffffffffffffffff82169050919050565b5f611714826116eb565b9050919050565b6117248161170a565b811461172e575f5ffd5b50565b5f8135905061173f8161171b565b92915050565b5f819050919050565b61175781611745565b8114611761575f5ffd5b50565b5f813590506117728161174e565b92915050565b5f5f6040838503121561178e5761178d6116e7565b5b5f61179b85828601611731565b92505060206117ac85828601611764565b9150509250929050565b6117bf8161170a565b82525050565b6117ce81611745565b82525050565b5f8115159050919050565b6117e8816117d4565b82525050565b5f60a0820190506118015f8301886117b6565b61180e60208301876117b6565b61181b60408301866117c5565b61182860608301856117c5565b61183560808301846117df565b9695505050505050565b5f6020820190506118525f8301846117c5565b92915050565b5f60208201905061186b5f8301846117b6565b92915050565b5f60208284031215611886576118856116e7565b5b5f61189384828501611764565b91505092915050565b6118a58161170a565b82525050565b6118b481611745565b82525050565b6118c3816117d4565b82525050565b60a082015f8201516118dd5f85018261189c565b5060208201516118f0602085018261189c565b50604082015161190360408501826118ab565b50606082015161191660608501826118ab565b50608082015161192960808501826118ba565b50505050565b5f60a0820190506119425f8301846118c9565b92915050565b5f5f5f6060848603121561195f5761195e6116e7565b5b5f61196c86828701611731565b935050602061197d86828701611764565b925050604061198e86828701611764565b9150509250925092565b5f602082840312156119ad576119ac6116e7565b5b5f6119ba84828501611731565b91505092915050565b5f82825260208201905092915050565b7f4d61726b6574706c6163653a2066656520746f6f2068696768000000000000005f82015250565b5f611a076019836119c3565b9150611a12826119d3565b602082019050919050565b5f6020820190508181035f830152611a34816119fb565b9050919050565b7f4d61726b6574706c6163653a207072696365206d757374206265203e203000005f82015250565b5f611a6f601e836119c3565b9150611a7a82611a3b565b602082019050919050565b5f6020820190508181035f830152611a9c81611a63565b9050919050565b5f81519050611ab18161171b565b92915050565b5f60208284031215611acc57611acb6116e7565b5b5f611ad984828501611aa3565b91505092915050565b7f4d61726b6574706c6163653a206e6f7420746f6b656e206f776e6572000000005f82015250565b5f611b16601c836119c3565b9150611b2182611ae2565b602082019050919050565b5f6020820190508181035f830152611b4381611b0a565b9050919050565b5f604082019050611b5d5f8301856117b6565b611b6a60208301846117b6565b9392505050565b611b7a816117d4565b8114611b84575f5ffd5b50565b5f81519050611b9581611b71565b92915050565b5f60208284031215611bb057611baf6116e7565b5b5f611bbd84828501611b87565b91505092915050565b7f4d61726b6574706c6163653a206d61726b6574706c616365206e6f74206170705f8201527f726f766564000000000000000000000000000000000000000000000000000000602082015250565b5f611c206025836119c3565b9150611c2b82611bc6565b604082019050919050565b5f6020820190508181035f830152611c4d81611c14565b9050919050565b7f4d61726b6574706c6163653a206c697374696e67206e6f7420616374697665005f82015250565b5f611c88601f836119c3565b9150611c9382611c54565b602082019050919050565b5f6020820190508181035f830152611cb581611c7c565b9050919050565b7f4d61726b6574706c6163653a20696e636f7272656374207061796d656e7400005f82015250565b5f611cf0601e836119c3565b9150611cfb82611cbc565b602082019050919050565b5f6020820190508181035f830152611d1d81611ce4565b9050919050565b7f4e487b71000000000000000000000000000000000000000000000000000000005f52601160045260245ffd5b5f611d5b82611745565b9150611d6683611745565b9250828202611d7481611745565b91508282048414831517611d8b57611d8a611d24565b5b5092915050565b7f4e487b71000000000000000000000000000000000000000000000000000000005f52601260045260245ffd5b5f611dc982611745565b9150611dd483611745565b925082611de457611de3611d92565b5b828204905092915050565b5f611df982611745565b9150611e0483611745565b9250828203905081811115611e1c57611e1b611d24565b5b92915050565b5f606082019050611e355f8301866117b6565b611e4260208301856117b6565b611e4f60408301846117c5565b949350505050565b5f81905092915050565b50565b5f611e6f5f83611e57565b9150611e7a82611e61565b5f82019050919050565b5f611e8e82611e64565b9150819050919050565b7f4d61726b6574706c6163653a20666565207472616e73666572206661696c65645f82015250565b5f611ecc6020836119c3565b9150611ed782611e98565b602082019050919050565b5f6020820190508181035f830152611ef981611ec0565b9050919050565b7f4d61726b6574706c6163653a2073656c6c6572207472616e73666572206661695f8201527f6c65640000000000000000000000000000000000000000000000000000000000602082015250565b5f611f5a6023836119c3565b9150611f6582611f00565b604082019050919050565b5f6020820190508181035f830152611f8781611f4e565b9050919050565b5f604082019050611fa15f8301856117b6565b611fae60208301846117c5565b9392505050565b7f4d61726b6574706c6163653a206e6f742073656c6c65720000000000000000005f82015250565b5f611fe96017836119c3565b9150611ff482611fb5565b602082019050919050565b5f6020820190508181035f83015261201681611fdd565b9050919050565b7f4d61726b6574706c6163653a207a65726f2061646472657373000000000000005f82015250565b5f6120516019836119c3565b915061205c8261201d565b602082019050919050565b5f6020820190508181035f83015261207e81612045565b905091905056fea264697066735822122017fe1cae3325cc085e9e87cec55d1d715f3761925f6d3396467b10a962f3286564736f6c63430008210033","linkReferences":{}},"methodIdentifiers":{"MAX_FEE_BPS()":"d55be8c6","buyItem(address,uint256)":"9f37092a","cancelListing(address,uint256)":"b2ddee06","feeBps()":"24a9d853","feeRecipient()":"46904840","getListing(address,uint256)":"88700d1c","listItem(address,uint256,uint256)":"89bfd38f","listings(address,uint256)":"0007df30","owner()":"8da5cb5b","renounceOwnership()":"715018a6","setFeeBps(uint256)":"72c27b62","setFeeRecipient(address)":"e74b981b","transferOwnership(address)":"f2fde38b","updateListingPrice(address,uint256,uint256)":"f7232f67"},"id":6}