{"abi":[{"type":"constructor","inputs":[{"name":"initialOwner","type":"address","internalType":"address"}],"stateMutability":"nonpayable"},{"type":"function","name":"approve","inputs":[{"name":"to","type":"address","internalType":"address"},{"name":"tokenId","type":"uint256","internalType":"uint256"}],"outputs":[],"stateMutability":"nonpayable"},{"type":"function","name":"balanceOf","inputs":[{"name":"owner","type":"address","internalType":"address"}],"outputs":[{"name":"","type":"uint256","internalType":"uint256"}],"stateMutability":"view"},{"type":"function","name":"getApproved","inputs":[{"name":"tokenId","type":"uint256","internalType":"uint256"}],"outputs":[{"name":"","type":"address","internalType":"address"}],"stateMutability":"view"},{"type":"function","name":"isApprovedForAll","inputs":[{"name":"owner","type":"address","internalType":"address"},{"name":"operator","type":"address","internalType":"address"}],"outputs":[{"name":"","type":"bool","internalType":"bool"}],"stateMutability":"view"},{"type":"function","name":"mint","inputs":[{"name":"to","type":"address","internalType":"address"},{"name":"uri","type":"string","internalType":"string"}],"outputs":[{"name":"","type":"uint256","internalType":"uint256"}],"stateMutability":"payable"},{"type":"function","name":"mintPrice","inputs":[],"outputs":[{"name":"","type":"uint256","internalType":"uint256"}],"stateMutability":"view"},{"type":"function","name":"name","inputs":[],"outputs":[{"name":"","type":"string","internalType":"string"}],"stateMutability":"view"},{"type":"function","name":"owner","inputs":[],"outputs":[{"name":"","type":"address","internalType":"address"}],"stateMutability":"view"},{"type":"function","name":"ownerOf","inputs":[{"name":"tokenId","type":"uint256","internalType":"uint256"}],"outputs":[{"name":"","type":"address","internalType":"address"}],"stateMutability":"view"},{"type":"function","name":"renounceOwnership","inputs":[],"outputs":[],"stateMutability":"nonpayable"},{"type":"function","name":"safeTransferFrom","inputs":[{"name":"from","type":"address","internalType":"address"},{"name":"to","type":"address","internalType":"address"},{"name":"tokenId","type":"uint256","internalType":"uint256"}],"outputs":[],"stateMutability":"nonpayable"},{"type":"function","name":"safeTransferFrom","inputs":[{"name":"from","type":"address","internalType":"address"},{"name":"to","type":"address","internalType":"address"},{"name":"tokenId","type":"uint256","internalType":"uint256"},{"name":"data","type":"bytes","internalType":"bytes"}],"outputs":[],"stateMutability":"nonpayable"},{"type":"function","name":"setApprovalForAll","inputs":[{"name":"operator","type":"address","internalType":"address"},{"name":"approved","type":"bool","internalType":"bool"}],"outputs":[],"stateMutability":"nonpayable"},{"type":"function","name":"setMintPrice","inputs":[{"name":"newPrice","type":"uint256","internalType":"uint256"}],"outputs":[],"stateMutability":"nonpayable"},{"type":"function","name":"supportsInterface","inputs":[{"name":"interfaceId","type":"bytes4","internalType":"bytes4"}],"outputs":[{"name":"","type":"bool","internalType":"bool"}],"stateMutability":"view"},{"type":"function","name":"symbol","inputs":[],"outputs":[{"name":"","type":"string","internalType":"string"}],"stateMutability":"view"},{"type":"function","name":"tokenURI","inputs":[{"name":"tokenId","type":"uint256","internalType":"uint256"}],"outputs":[{"name":"","type":"string","internalType":"string"}],"stateMutability":"view"},{"type":"function","name":"totalMinted","inputs":[],"outputs":[{"name":"","type":"uint256","internalType":"uint256"}],"stateMutability":"view"},{"type":"function","name":"transferFrom","inputs":[{"name":"from","type":"address","internalType":"address"},{"name":"to","type":"address","internalType":"address"},{"name":"tokenId","type":"uint256","internalType":"uint256"}],"outputs":[],"stateMutability":"nonpayable"},{"type":"function","name":"transferOwnership","inputs":[{"name":"newOwner","type":"address","internalType":"address"}],"outputs":[],"stateMutability":"nonpayable"},{"type":"function","name":"withdraw","inputs":[],"outputs":[],"stateMutability":"nonpayable"},{"type":"event","name":"Approval","inputs":[{"name":"owner","type":"address","indexed":true,"internalType":"address"},{"name":"approved","type":"address","indexed":true,"internalType":"address"},{"name":"tokenId","type":"uint256","indexed":true,"internalType":"uint256"}],"anonymous":false},{"type":"event","name":"ApprovalForAll","inputs":[{"name":"owner","type":"address","indexed":true,"internalType":"address"},{"name":"operator","type":"address","indexed":true,"internalType":"address"},{"name":"approved","type":"bool","indexed":false,"internalType":"bool"}],"anonymous":false},{"type":"event","name":"BatchMetadataUpdate","inputs":[{"name":"_fromTokenId","type":"uint256","indexed":false,"internalType":"uint256"},{"name":"_toTokenId","type":"uint256","indexed":false,"internalType":"uint256"}],"anonymous":false},{"type":"event","name":"MetadataUpdate","inputs":[{"name":"_tokenId","type":"uint256","indexed":false,"internalType":"uint256"}],"anonymous":false},{"type":"event","name":"Minted","inputs":[{"name":"to","type":"address","indexed":true,"internalType":"address"},{"name":"tokenId","type":"uint256","indexed":true,"internalType":"uint256"},{"name":"tokenURI","type":"string","indexed":false,"internalType":"string"}],"anonymous":false},{"type":"event","name":"OwnershipTransferred","inputs":[{"name":"previousOwner","type":"address","indexed":true,"internalType":"address"},{"name":"newOwner","type":"address","indexed":true,"internalType":"address"}],"anonymous":false},{"type":"event","name":"Transfer","inputs":[{"name":"from","type":"address","indexed":true,"internalType":"address"},{"name":"to","type":"address","indexed":true,"internalType":"address"},{"name":"tokenId","type":"uint256","indexed":true,"internalType":"uint256"}],"anonymous":false},{"type":"error","name":"ERC721IncorrectOwner","inputs":[{"name":"sender","type":"address","internalType":"address"},{"name":"tokenId","type":"uint256","internalType":"uint256"},{"name":"owner","type":"address","internalType":"address"}]},{"type":"error","name":"ERC721InsufficientApproval","inputs":[{"name":"operator","type":"address","internalType":"address"},{"name":"tokenId","type":"uint256","internalType":"uint256"}]},{"type":"error","name":"ERC721InvalidApprover","inputs":[{"name":"approver","type":"address","internalType":"address"}]},{"type":"error","name":"ERC721InvalidOperator","inputs":[{"name":"operator","type":"address","internalType":"address"}]},{"type":"error","name":"ERC721InvalidOwner","inputs":[{"name":"owner","type":"address","internalType":"address"}]},{"type":"error","name":"ERC721InvalidReceiver","inputs":[{"name":"receiver","type":"address","internalType":"address"}]},{"type":"error","name":"ERC721InvalidSender","inputs":[{"name":"sender","type":"address","internalType":"address"}]},{"type":"error","name":"ERC721NonexistentToken","inputs":[{"name":"tokenId","type":"uint256","internalType":"uint256"}]},{"type":"error","name":"OwnableInvalidOwner","inputs":[{"name":"owner","type":"address","internalType":"address"}]},{"type":"error","name":"OwnableUnauthorizedAccount","inputs":[{"name":"account","type":"address","internalType":"address"}]}],"bytecode":{"object":"0x6080604052662386f26fc1000060095534801561001a575f5ffd5b506040516130ac3803806130ac833981810160405281019061003c9190610271565b806040518060400160405280600a81526020017f53696d706c65204e4654000000000000000000000000000000000000000000008152506040518060400160405280600481526020017f534e465400000000000000000000000000000000000000000000000000000000815250815f90816100b791906104ea565b5080600190816100c791906104ea565b5050505f73ffffffffffffffffffffffffffffffffffffffff168173ffffffffffffffffffffffffffffffffffffffff160361013a575f6040517f1e4fbdf700000000000000000000000000000000000000000000000000000000815260040161013191906105c8565b60405180910390fd5b6101498161015060201b60201c565b50506105e1565b5f60075f9054906101000a900473ffffffffffffffffffffffffffffffffffffffff1690508160075f6101000a81548173ffffffffffffffffffffffffffffffffffffffff021916908373ffffffffffffffffffffffffffffffffffffffff1602179055508173ffffffffffffffffffffffffffffffffffffffff168173ffffffffffffffffffffffffffffffffffffffff167f8be0079c531659141344cd1fd0a4f28419497f9722a3daafe3b4186f6b6457e060405160405180910390a35050565b5f5ffd5b5f73ffffffffffffffffffffffffffffffffffffffff82169050919050565b5f61024082610217565b9050919050565b61025081610236565b811461025a575f5ffd5b50565b5f8151905061026b81610247565b92915050565b5f6020828403121561028657610285610213565b5b5f6102938482850161025d565b91505092915050565b5f81519050919050565b7f4e487b71000000000000000000000000000000000000000000000000000000005f52604160045260245ffd5b7f4e487b71000000000000000000000000000000000000000000000000000000005f52602260045260245ffd5b5f600282049050600182168061031757607f821691505b60208210810361032a576103296102d3565b5b50919050565b5f819050815f5260205f209050919050565b5f6020601f8301049050919050565b5f82821b905092915050565b5f6008830261038c7fffffffffffffffffffffffffffffffffffffffffffffffffffffffffffffffff82610351565b6103968683610351565b95508019841693508086168417925050509392505050565b5f819050919050565b5f819050919050565b5f6103da6103d56103d0846103ae565b6103b7565b6103ae565b9050919050565b5f819050919050565b6103f3836103c0565b6104076103ff826103e1565b84845461035d565b825550505050565b5f5f905090565b61041e61040f565b6104298184846103ea565b505050565b5f5b8281101561044f576104445f828401610416565b600181019050610430565b505050565b601f8211156104a257828211156104a15761046e81610330565b61047783610342565b61048085610342565b602086101561048d575f90505b80830161049c8284038261042e565b505050505b5b505050565b5f82821c905092915050565b5f6104c25f19846008026104a7565b1980831691505092915050565b5f6104da83836104b3565b9150826002028217905092915050565b6104f38261029c565b67ffffffffffffffff81111561050c5761050b6102a6565b5b6105168254610300565b610521828285610454565b5f60209050601f831160018114610552575f8415610540578287015190505b61054a85826104cf565b8655506105b1565b601f19841661056086610330565b5f5b8281101561058757848901518255600182019150602085019450602081019050610562565b868310156105a457848901516105a0601f8916826104b3565b8355505b6001600288020188555050505b505050505050565b6105c281610236565b82525050565b5f6020820190506105db5f8301846105b9565b92915050565b612abe806105ee5f395ff3fe608060405260043610610129575f3560e01c8063715018a6116100aa578063b88d4fde1161006e578063b88d4fde146103bb578063c87b56dd146103e3578063d0def5211461041f578063e985e9c51461044f578063f2fde38b1461048b578063f4a0a528146104b357610129565b8063715018a6146102ff5780638da5cb5b1461031557806395d89b411461033f578063a22cb46514610369578063a2309ff81461039157610129565b80633ccfd60b116100f15780633ccfd60b1461021f57806342842e0e146102355780636352211e1461025d5780636817c76c1461029957806370a08231146102c357610129565b806301ffc9a71461012d57806306fdde0314610169578063081812fc14610193578063095ea7b3146101cf57806323b872dd146101f7575b5f5ffd5b348015610138575f5ffd5b50610153600480360381019061014e9190611e04565b6104db565b6040516101609190611e49565b60405180910390f35b348015610174575f5ffd5b5061017d61053b565b60405161018a9190611ed2565b60405180910390f35b34801561019e575f5ffd5b506101b960048036038101906101b49190611f25565b6105ca565b6040516101c69190611f8f565b60405180910390f35b3480156101da575f5ffd5b506101f560048036038101906101f09190611fd2565b6105e5565b005b348015610202575f5ffd5b5061021d60048036038101906102189190612010565b6105fb565b005b34801561022a575f5ffd5b506102336106fa565b005b348015610240575f5ffd5b5061025b60048036038101906102569190612010565b6107fb565b005b348015610268575f5ffd5b50610283600480360381019061027e9190611f25565b61081a565b6040516102909190611f8f565b60405180910390f35b3480156102a4575f5ffd5b506102ad61082b565b6040516102ba919061206f565b60405180910390f35b3480156102ce575f5ffd5b506102e960048036038101906102e49190612088565b610831565b6040516102f6919061206f565b60405180910390f35b34801561030a575f5ffd5b506103136108e7565b005b348015610320575f5ffd5b506103296108fa565b6040516103369190611f8f565b60405180910390f35b34801561034a575f5ffd5b50610353610922565b6040516103609190611ed2565b60405180910390f35b348015610374575f5ffd5b5061038f600480360381019061038a91906120dd565b6109b2565b005b34801561039c575f5ffd5b506103a56109c8565b6040516103b2919061206f565b60405180910390f35b3480156103c6575f5ffd5b506103e160048036038101906103dc9190612247565b6109d1565b005b3480156103ee575f5ffd5b5061040960048036038101906104049190611f25565b6109f6565b6040516104169190611ed2565b60405180910390f35b61043960048036038101906104349190612365565b610a72565b604051610446919061206f565b60405180910390f35b34801561045a575f5ffd5b50610475600480360381019061047091906123bf565b610b3e565b6040516104829190611e49565b60405180910390f35b348015610496575f5ffd5b506104b160048036038101906104ac9190612088565b610bcc565b005b3480156104be575f5ffd5b506104d960048036038101906104d49190611f25565b610c50565b005b5f634906490660e01b7bffffffffffffffffffffffffffffffffffffffffffffffffffffffff1916827bffffffffffffffffffffffffffffffffffffffffffffffffffffffff19161480610534575061053382610c62565b5b9050919050565b60605f80546105499061242a565b80601f01602080910402602001604051908101604052809291908181526020018280546105759061242a565b80156105c05780601f10610597576101008083540402835291602001916105c0565b820191905f5260205f20905b8154815290600101906020018083116105a357829003601f168201915b5050505050905090565b5f6105d482610d43565b506105de82610dc9565b9050919050565b6105f782826105f2610e02565b610e09565b5050565b5f73ffffffffffffffffffffffffffffffffffffffff168273ffffffffffffffffffffffffffffffffffffffff160361066b575f6040517f64a0ae920000000000000000000000000000000000000000000000000000000081526004016106629190611f8f565b60405180910390fd5b5f61067e8383610679610e02565b610e1b565b90508373ffffffffffffffffffffffffffffffffffffffff168173ffffffffffffffffffffffffffffffffffffffff16146106f4578382826040517f64283d7b0000000000000000000000000000000000000000000000000000000081526004016106eb9392919061245a565b60405180910390fd5b50505050565b610702611026565b5f4790505f8111610748576040517f08c379a000000000000000000000000000000000000000000000000000000000815260040161073f906124d9565b60405180910390fd5b5f6107516108fa565b73ffffffffffffffffffffffffffffffffffffffff168260405161077490612524565b5f6040518083038185875af1925050503d805f81146107ae576040519150601f19603f3d011682016040523d82523d5f602084013e6107b3565b606091505b50509050806107f7576040517f08c379a00000000000000000000000000000000000000000000000000000000081526004016107ee90612582565b60405180910390fd5b5050565b61081583838360405180602001604052805f8152506109d1565b505050565b5f61082482610d43565b9050919050565b60095481565b5f5f73ffffffffffffffffffffffffffffffffffffffff168273ffffffffffffffffffffffffffffffffffffffff16036108a2575f6040517f89c62b640000000000000000000000000000000000000000000000000000000081526004016108999190611f8f565b60405180910390fd5b60035f8373ffffffffffffffffffffffffffffffffffffffff1673ffffffffffffffffffffffffffffffffffffffff1681526020019081526020015f20549050919050565b6108ef611026565b6108f85f6110ad565b565b5f60075f9054906101000a900473ffffffffffffffffffffffffffffffffffffffff16905090565b6060600180546109319061242a565b80601f016020809104026020016040519081016040528092919081815260200182805461095d9061242a565b80156109a85780601f1061097f576101008083540402835291602001916109a8565b820191905f5260205f20905b81548152906001019060200180831161098b57829003601f168201915b5050505050905090565b6109c46109bd610e02565b8383611170565b5050565b5f600854905090565b6109dc8484846105fb565b6109f06109e7610e02565b85858585611349565b50505050565b6060610a0182610d43565b505f610a0b6114f5565b90505f610a178461150b565b90505f825103610a2b578092505050610a6d565b5f81511115610a5f578181604051602001610a479291906125da565b60405160208183030381529060405292505050610a6d565b610a68846115ac565b925050505b919050565b5f600954341015610ab8576040517f08c379a0000000000000000000000000000000000000000000000000000000008152600401610aaf90612647565b60405180910390fd5b5f60085f815480929190610acb90612692565b919050559050610adb8482611612565b610ae5818461162f565b808473ffffffffffffffffffffffffffffffffffffffff167fe7cd4ce7f2a465edc730269a1305e8a48bad821e8fb7e152ec413829c01a53c485604051610b2c9190611ed2565b60405180910390a38091505092915050565b5f60055f8473ffffffffffffffffffffffffffffffffffffffff1673ffffffffffffffffffffffffffffffffffffffff1681526020019081526020015f205f8373ffffffffffffffffffffffffffffffffffffffff1673ffffffffffffffffffffffffffffffffffffffff1681526020019081526020015f205f9054906101000a900460ff16905092915050565b610bd4611026565b5f73ffffffffffffffffffffffffffffffffffffffff168173ffffffffffffffffffffffffffffffffffffffff1603610c44575f6040517f1e4fbdf7000000000000000000000000000000000000000000000000000000008152600401610c3b9190611f8f565b60405180910390fd5b610c4d816110ad565b50565b610c58611026565b8060098190555050565b5f7f80ac58cd000000000000000000000000000000000000000000000000000000007bffffffffffffffffffffffffffffffffffffffffffffffffffffffff1916827bffffffffffffffffffffffffffffffffffffffffffffffffffffffff19161480610d2c57507f5b5e139f000000000000000000000000000000000000000000000000000000007bffffffffffffffffffffffffffffffffffffffffffffffffffffffff1916827bffffffffffffffffffffffffffffffffffffffffffffffffffffffff1916145b80610d3c5750610d3b82611689565b5b9050919050565b5f5f610d4e836116f2565b90505f73ffffffffffffffffffffffffffffffffffffffff168173ffffffffffffffffffffffffffffffffffffffff1603610dc057826040517f7e273289000000000000000000000000000000000000000000000000000000008152600401610db7919061206f565b60405180910390fd5b80915050919050565b5f60045f8381526020019081526020015f205f9054906101000a900473ffffffffffffffffffffffffffffffffffffffff169050919050565b5f33905090565b610e16838383600161172b565b505050565b5f5f610e26846116f2565b90505f73ffffffffffffffffffffffffffffffffffffffff168373ffffffffffffffffffffffffffffffffffffffff1614610e6757610e668184866118ea565b5b5f73ffffffffffffffffffffffffffffffffffffffff168173ffffffffffffffffffffffffffffffffffffffff1614610ef257610ea65f855f5f61172b565b600160035f8373ffffffffffffffffffffffffffffffffffffffff1673ffffffffffffffffffffffffffffffffffffffff1681526020019081526020015f205f82825403925050819055505b5f73ffffffffffffffffffffffffffffffffffffffff168573ffffffffffffffffffffffffffffffffffffffff1614610f7157600160035f8773ffffffffffffffffffffffffffffffffffffffff1673ffffffffffffffffffffffffffffffffffffffff1681526020019081526020015f205f82825401925050819055505b8460025f8681526020019081526020015f205f6101000a81548173ffffffffffffffffffffffffffffffffffffffff021916908373ffffffffffffffffffffffffffffffffffffffff160217905550838573ffffffffffffffffffffffffffffffffffffffff168273ffffffffffffffffffffffffffffffffffffffff167fddf252ad1be2c89b69c2b068fc378daa952ba7f163c4a11628f55a4df523b3ef60405160405180910390a4809150509392505050565b61102e610e02565b73ffffffffffffffffffffffffffffffffffffffff1661104c6108fa565b73ffffffffffffffffffffffffffffffffffffffff16146110ab5761106f610e02565b6040517f118cdaa70000000000000000000000000000000000000000000000000000000081526004016110a29190611f8f565b60405180910390fd5b565b5f60075f9054906101000a900473ffffffffffffffffffffffffffffffffffffffff1690508160075f6101000a81548173ffffffffffffffffffffffffffffffffffffffff021916908373ffffffffffffffffffffffffffffffffffffffff1602179055508173ffffffffffffffffffffffffffffffffffffffff168173ffffffffffffffffffffffffffffffffffffffff167f8be0079c531659141344cd1fd0a4f28419497f9722a3daafe3b4186f6b6457e060405160405180910390a35050565b5f73ffffffffffffffffffffffffffffffffffffffff168373ffffffffffffffffffffffffffffffffffffffff16036111e0575f6040517fa9fbf51f0000000000000000000000000000000000000000000000000000000081526004016111d79190611f8f565b60405180910390fd5b5f73ffffffffffffffffffffffffffffffffffffffff168273ffffffffffffffffffffffffffffffffffffffff160361125057816040517f5b08ba180000000000000000000000000000000000000000000000000000000081526004016112479190611f8f565b60405180910390fd5b8060055f8573ffffffffffffffffffffffffffffffffffffffff1673ffffffffffffffffffffffffffffffffffffffff1681526020019081526020015f205f8473ffffffffffffffffffffffffffffffffffffffff1673ffffffffffffffffffffffffffffffffffffffff1681526020019081526020015f205f6101000a81548160ff0219169083151502179055508173ffffffffffffffffffffffffffffffffffffffff168373ffffffffffffffffffffffffffffffffffffffff167f17307eab39ab6107e8899845ad3d59bd9653f200f220920489ca2b5937696c318360405161133c9190611e49565b60405180910390a3505050565b5f8373ffffffffffffffffffffffffffffffffffffffff163b11156114ee578273ffffffffffffffffffffffffffffffffffffffff1663150b7a02868685856040518563ffffffff1660e01b81526004016113a7949392919061272b565b6020604051808303815f875af19250505080156113e257506040513d601f19601f820116820180604052508101906113df9190612789565b60015b611463573d805f8114611410576040519150601f19603f3d011682016040523d82523d5f602084013e611415565b606091505b505f81510361145b57836040517f64a0ae920000000000000000000000000000000000000000000000000000000081526004016114529190611f8f565b60405180910390fd5b805160208201fd5b63150b7a0260e01b7bffffffffffffffffffffffffffffffffffffffffffffffffffffffff1916817bffffffffffffffffffffffffffffffffffffffffffffffffffffffff1916146114ec57836040517f64a0ae920000000000000000000000000000000000000000000000000000000081526004016114e39190611f8f565b60405180910390fd5b505b5050505050565b606060405180602001604052805f815250905090565b606060065f8381526020019081526020015f2080546115299061242a565b80601f01602080910402602001604051908101604052809291908181526020018280546115559061242a565b80156115a05780601f10611577576101008083540402835291602001916115a0565b820191905f5260205f20905b81548152906001019060200180831161158357829003601f168201915b50505050509050919050565b60606115b782610d43565b505f6115c16114f5565b90505f8151116115df5760405180602001604052805f81525061160a565b806115e9846119ad565b6040516020016115fa9291906125da565b6040516020818303038152906040525b915050919050565b61162b828260405180602001604052805f815250611a77565b5050565b8060065f8481526020019081526020015f20908161164d9190612965565b507ff8e1a15aba9398e019f0b49df1a4fde98ee17ae345cb5f6b5e2c27f5033e8ce78260405161167d919061206f565b60405180910390a15050565b5f7f01ffc9a7000000000000000000000000000000000000000000000000000000007bffffffffffffffffffffffffffffffffffffffffffffffffffffffff1916827bffffffffffffffffffffffffffffffffffffffffffffffffffffffff1916149050919050565b5f60025f8381526020019081526020015f205f9054906101000a900473ffffffffffffffffffffffffffffffffffffffff169050919050565b808061176357505f73ffffffffffffffffffffffffffffffffffffffff168273ffffffffffffffffffffffffffffffffffffffff1614155b15611895575f61177284610d43565b90505f73ffffffffffffffffffffffffffffffffffffffff168373ffffffffffffffffffffffffffffffffffffffff16141580156117dc57508273ffffffffffffffffffffffffffffffffffffffff168173ffffffffffffffffffffffffffffffffffffffff1614155b80156117ef57506117ed8184610b3e565b155b1561183157826040517fa9fbf51f0000000000000000000000000000000000000000000000000000000081526004016118289190611f8f565b60405180910390fd5b811561189357838573ffffffffffffffffffffffffffffffffffffffff168273ffffffffffffffffffffffffffffffffffffffff167f8c5be1e5ebec7d5bd14f71427d1e84f3dd0314c0f7b2291e5b200ac8c7c3b92560405160405180910390a45b505b8360045f8581526020019081526020015f205f6101000a81548173ffffffffffffffffffffffffffffffffffffffff021916908373ffffffffffffffffffffffffffffffffffffffff16021790555050505050565b6118f5838383611a9a565b6119a8575f73ffffffffffffffffffffffffffffffffffffffff168373ffffffffffffffffffffffffffffffffffffffff160361196957806040517f7e273289000000000000000000000000000000000000000000000000000000008152600401611960919061206f565b60405180910390fd5b81816040517f177e802f00000000000000000000000000000000000000000000000000000000815260040161199f929190612a34565b60405180910390fd5b505050565b60605f60016119bb84611b5a565b0190505f8167ffffffffffffffff8111156119d9576119d8612123565b5b6040519080825280601f01601f191660200182016040528015611a0b5781602001600182028036833780820191505090505b5090505f82602083010190505b600115611a6c578080600190039150507f3031323334353637383961626364656600000000000000000000000000000000600a86061a8153600a8581611a6157611a60612a5b565b5b0494505f8503611a18575b819350505050919050565b611a818383611cab565b611a95611a8c610e02565b5f858585611349565b505050565b5f5f73ffffffffffffffffffffffffffffffffffffffff168373ffffffffffffffffffffffffffffffffffffffff1614158015611b5157508273ffffffffffffffffffffffffffffffffffffffff168473ffffffffffffffffffffffffffffffffffffffff161480611b125750611b118484610b3e565b5b80611b5057508273ffffffffffffffffffffffffffffffffffffffff16611b3883610dc9565b73ffffffffffffffffffffffffffffffffffffffff16145b5b90509392505050565b5f5f5f90507a184f03e93ff9f4daa797ed6e38ed64bf6a1f0100000000000000008310611bb6577a184f03e93ff9f4daa797ed6e38ed64bf6a1f0100000000000000008381611bac57611bab612a5b565b5b0492506040810190505b6d04ee2d6d415b85acef81000000008310611bf3576d04ee2d6d415b85acef81000000008381611be957611be8612a5b565b5b0492506020810190505b662386f26fc100008310611c2257662386f26fc100008381611c1857611c17612a5b565b5b0492506010810190505b6305f5e1008310611c4b576305f5e1008381611c4157611c40612a5b565b5b0492506008810190505b6127108310611c70576127108381611c6657611c65612a5b565b5b0492506004810190505b60648310611c935760648381611c8957611c88612a5b565b5b0492506002810190505b600a8310611ca2576001810190505b80915050919050565b5f73ffffffffffffffffffffffffffffffffffffffff168273ffffffffffffffffffffffffffffffffffffffff1603611d1b575f6040517f64a0ae92000000000000000000000000000000000000000000000000000000008152600401611d129190611f8f565b60405180910390fd5b5f611d2783835f610e1b565b90505f73ffffffffffffffffffffffffffffffffffffffff168173ffffffffffffffffffffffffffffffffffffffff1614611d99575f6040517f73c6ac6e000000000000000000000000000000000000000000000000000000008152600401611d909190611f8f565b60405180910390fd5b505050565b5f604051905090565b5f5ffd5b5f5ffd5b5f7fffffffff0000000000000000000000000000000000000000000000000000000082169050919050565b611de381611daf565b8114611ded575f5ffd5b50565b5f81359050611dfe81611dda565b92915050565b5f60208284031215611e1957611e18611da7565b5b5f611e2684828501611df0565b91505092915050565b5f8115159050919050565b611e4381611e2f565b82525050565b5f602082019050611e5c5f830184611e3a565b92915050565b5f81519050919050565b5f82825260208201905092915050565b8281835e5f83830152505050565b5f601f19601f8301169050919050565b5f611ea482611e62565b611eae8185611e6c565b9350611ebe818560208601611e7c565b611ec781611e8a565b840191505092915050565b5f6020820190508181035f830152611eea8184611e9a565b905092915050565b5f819050919050565b611f0481611ef2565b8114611f0e575f5ffd5b50565b5f81359050611f1f81611efb565b92915050565b5f60208284031215611f3a57611f39611da7565b5b5f611f4784828501611f11565b91505092915050565b5f73ffffffffffffffffffffffffffffffffffffffff82169050919050565b5f611f7982611f50565b9050919050565b611f8981611f6f565b82525050565b5f602082019050611fa25f830184611f80565b92915050565b611fb181611f6f565b8114611fbb575f5ffd5b50565b5f81359050611fcc81611fa8565b92915050565b5f5f60408385031215611fe857611fe7611da7565b5b5f611ff585828601611fbe565b925050602061200685828601611f11565b9150509250929050565b5f5f5f6060848603121561202757612026611da7565b5b5f61203486828701611fbe565b935050602061204586828701611fbe565b925050604061205686828701611f11565b9150509250925092565b61206981611ef2565b82525050565b5f6020820190506120825f830184612060565b92915050565b5f6020828403121561209d5761209c611da7565b5b5f6120aa84828501611fbe565b91505092915050565b6120bc81611e2f565b81146120c6575f5ffd5b50565b5f813590506120d7816120b3565b92915050565b5f5f604083850312156120f3576120f2611da7565b5b5f61210085828601611fbe565b9250506020612111858286016120c9565b9150509250929050565b5f5ffd5b5f5ffd5b7f4e487b71000000000000000000000000000000000000000000000000000000005f52604160045260245ffd5b61215982611e8a565b810181811067ffffffffffffffff8211171561217857612177612123565b5b80604052505050565b5f61218a611d9e565b90506121968282612150565b919050565b5f67ffffffffffffffff8211156121b5576121b4612123565b5b6121be82611e8a565b9050602081019050919050565b828183375f83830152505050565b5f6121eb6121e68461219b565b612181565b9050828152602081018484840111156122075761220661211f565b5b6122128482856121cb565b509392505050565b5f82601f83011261222e5761222d61211b565b5b813561223e8482602086016121d9565b91505092915050565b5f5f5f5f6080858703121561225f5761225e611da7565b5b5f61226c87828801611fbe565b945050602061227d87828801611fbe565b935050604061228e87828801611f11565b925050606085013567ffffffffffffffff8111156122af576122ae611dab565b5b6122bb8782880161221a565b91505092959194509250565b5f67ffffffffffffffff8211156122e1576122e0612123565b5b6122ea82611e8a565b9050602081019050919050565b5f612309612304846122c7565b612181565b9050828152602081018484840111156123255761232461211f565b5b6123308482856121cb565b509392505050565b5f82601f83011261234c5761234b61211b565b5b813561235c8482602086016122f7565b91505092915050565b5f5f6040838503121561237b5761237a611da7565b5b5f61238885828601611fbe565b925050602083013567ffffffffffffffff8111156123a9576123a8611dab565b5b6123b585828601612338565b9150509250929050565b5f5f604083850312156123d5576123d4611da7565b5b5f6123e285828601611fbe565b92505060206123f385828601611fbe565b9150509250929050565b7f4e487b71000000000000000000000000000000000000000000000000000000005f52602260045260245ffd5b5f600282049050600182168061244157607f821691505b602082108103612454576124536123fd565b5b50919050565b5f60608201905061246d5f830186611f80565b61247a6020830185612060565b6124876040830184611f80565b949350505050565b7f53696d706c654e46543a206e6f7468696e6720746f20776974686472617700005f82015250565b5f6124c3601e83611e6c565b91506124ce8261248f565b602082019050919050565b5f6020820190508181035f8301526124f0816124b7565b9050919050565b5f81905092915050565b50565b5f61250f5f836124f7565b915061251a82612501565b5f82019050919050565b5f61252e82612504565b9150819050919050565b7f53696d706c654e46543a207769746864726177206661696c65640000000000005f82015250565b5f61256c601a83611e6c565b915061257782612538565b602082019050919050565b5f6020820190508181035f83015261259981612560565b9050919050565b5f81905092915050565b5f6125b482611e62565b6125be81856125a0565b93506125ce818560208601611e7c565b80840191505092915050565b5f6125e582856125aa565b91506125f182846125aa565b91508190509392505050565b7f53696d706c654e46543a20696e73756666696369656e74207061796d656e74005f82015250565b5f612631601f83611e6c565b915061263c826125fd565b602082019050919050565b5f6020820190508181035f83015261265e81612625565b9050919050565b7f4e487b71000000000000000000000000000000000000000000000000000000005f52601160045260245ffd5b5f61269c82611ef2565b91507fffffffffffffffffffffffffffffffffffffffffffffffffffffffffffffffff82036126ce576126cd612665565b5b600182019050919050565b5f81519050919050565b5f82825260208201905092915050565b5f6126fd826126d9565b61270781856126e3565b9350612717818560208601611e7c565b61272081611e8a565b840191505092915050565b5f60808201905061273e5f830187611f80565b61274b6020830186611f80565b6127586040830185612060565b818103606083015261276a81846126f3565b905095945050505050565b5f8151905061278381611dda565b92915050565b5f6020828403121561279e5761279d611da7565b5b5f6127ab84828501612775565b91505092915050565b5f819050815f5260205f209050919050565b5f6020601f8301049050919050565b5f82821b905092915050565b5f600883026128107fffffffffffffffffffffffffffffffffffffffffffffffffffffffffffffffff826127d5565b61281a86836127d5565b95508019841693508086168417925050509392505050565b5f819050919050565b5f61285561285061284b84611ef2565b612832565b611ef2565b9050919050565b5f819050919050565b61286e8361283b565b61288261287a8261285c565b8484546127e1565b825550505050565b5f5f905090565b61289961288a565b6128a4818484612865565b505050565b5f5b828110156128ca576128bf5f828401612891565b6001810190506128ab565b505050565b601f82111561291d578282111561291c576128e9816127b4565b6128f2836127c6565b6128fb856127c6565b6020861015612908575f90505b808301612917828403826128a9565b505050505b5b505050565b5f82821c905092915050565b5f61293d5f1984600802612922565b1980831691505092915050565b5f612955838361292e565b9150826002028217905092915050565b61296e82611e62565b67ffffffffffffffff81111561298757612986612123565b5b612991825461242a565b61299c8282856128cf565b5f60209050601f8311600181146129cd575f84156129bb578287015190505b6129c5858261294a565b865550612a2c565b601f1984166129db866127b4565b5f5b82811015612a02578489015182556001820191506020850194506020810190506129dd565b86831015612a1f5784890151612a1b601f89168261292e565b8355505b6001600288020188555050505b505050505050565b5f604082019050612a475f830185611f80565b612a546020830184612060565b9392505050565b7f4e487b71000000000000000000000000000000000000000000000000000000005f52601260045260245ffdfea264697066735822122052aeb2c64e45223a67a97a715766f0e19aeecd708ee736ed3b2e13f266eab58f64736f6c63430008210033","linkReferences":{}},"methodIdentifiers":{"approve(address,uint256)":"095ea7b3","balanceOf(address)":"70a08231","getApproved(uint256)":"081812fc","isApprovedForAll(address,address)":"e985e9c5","mint(address,string)":"d0def521","mintPrice()":"6817c76c","name()":"06fdde03","owner()":"8da5cb5b","ownerOf(uint256)":"6352211e","renounceOwnership()":"715018a6","safeTransferFrom(address,address,uint256)":"42842e0e","safeTransferFrom(address,address,uint256,bytes)":"b88d4fde","setApprovalForAll(address,bool)":"a22cb465","setMintPrice(uint256)":"f4a0a528","supportsInterface(bytes4)":"01ffc9a7","symbol()":"95d89b41","tokenURI(uint256)":"c87b56dd","totalMinted()":"a2309ff8","transferFrom(address,address,uint256)":"23b872dd","transferOwnership(address)":"f2fde38b","withdraw()":"3ccfd60b"},"id":20}